{
  "contractName": "BQPD",
  "abi": [
    {
      "anonymous": false,
      "inputs": [
        {
          "indexed": true,
          "internalType": "address",
          "name": "addr",
          "type": "address"
        },
        {
          "indexed": false,
          "internalType": "string",
          "name": "uid",
          "type": "string"
        },
        {
          "indexed": false,
          "internalType": "string",
          "name": "entityType",
          "type": "string"
        }
      ],
      "name": "EntityRegistered",
      "type": "event"
    },
    {
      "inputs": [
        {
          "internalType": "address",
          "name": "",
          "type": "address"
        }
      ],
      "name": "registeredEntities",
      "outputs": [
        {
          "internalType": "string",
          "name": "uid",
          "type": "string"
        },
        {
          "internalType": "string",
          "name": "entityType",
          "type": "string"
        },
        {
          "internalType": "address",
          "name": "publicKey",
          "type": "address"
        },
        {
          "internalType": "bool",
          "name": "isRegistered",
          "type": "bool"
        }
      ],
      "stateMutability": "view",
      "type": "function"
    },
    {
      "inputs": [
        {
          "internalType": "string",
          "name": "_uid",
          "type": "string"
        },
        {
          "internalType": "string",
          "name": "_entityType",
          "type": "string"
        }
      ],
      "name": "registerEntity",
      "outputs": [],
      "stateMutability": "nonpayable",
      "type": "function"
    },
    {
      "inputs": [
        {
          "internalType": "address",
          "name": "_addr",
          "type": "address"
        }
      ],
      "name": "getEntity",
      "outputs": [
        {
          "internalType": "string",
          "name": "",
          "type": "string"
        },
        {
          "internalType": "string",
          "name": "",
          "type": "string"
        },
        {
          "internalType": "bool",
          "name": "",
          "type": "bool"
        }
      ],
      "stateMutability": "view",
      "type": "function"
    }
  ],
  "bytecode": "0x608060405234801561001057600080fd5b50610c87806100206000396000f3fe608060405234801561001057600080fd5b50600436106100415760003560e01c80632ff197801461004657806375894e8c1461006257806379576d4314610094575b600080fd5b610060600480360381019061005b919061084a565b6100c7565b005b61007c60048036038101906100779190610821565b610391565b60405161008b93929190610a17565b60405180910390f35b6100ae60048036038101906100a99190610821565b610594565b6040516100be94939291906109c4565b60405180910390f35b6000803373ffffffffffffffffffffffffffffffffffffffff1673ffffffffffffffffffffffffffffffffffffffff16815260200190815260200160002060020160149054906101000a900460ff1615610156576040517f08c379a000000000000000000000000000000000000000000000000000000000815260040161014d90610a7c565b60405180910390fd5b7fef82cc74a34211697cb87f1279e66832ee4958064d55b955c515bfec77ba8016818051906020012014806101b157507f26c0bfd16b568d9adb9195c7988c958296e472b9dfac42d28b24b6a08d3b75fb8180519060200120145b806101e257507f66100b7d6ab143cd8cb9b49e9da10019e1ff6e4a8b8057320aa6bea0a69accfe8180519060200120145b610221576040517f08c379a000000000000000000000000000000000000000000000000000000000815260040161021890610a5c565b60405180910390fd5b60405180608001604052808381526020018281526020013373ffffffffffffffffffffffffffffffffffffffff168152602001600115158152506000803373ffffffffffffffffffffffffffffffffffffffff1673ffffffffffffffffffffffffffffffffffffffff16815260200190815260200160002060008201518160000190805190602001906102b5929190610701565b5060208201518160010190805190602001906102d2929190610701565b5060408201518160020160006101000a81548173ffffffffffffffffffffffffffffffffffffffff021916908373ffffffffffffffffffffffffffffffffffffffff16021790555060608201518160020160146101000a81548160ff0219169083151502179055509050503373ffffffffffffffffffffffffffffffffffffffff167fb7218c8f53a2510b44c6ae2c8bc4ad68abecd93526d50d88bd472e70bf81fcca838360405161038592919061098d565b60405180910390a25050565b6060806000806000808673ffffffffffffffffffffffffffffffffffffffff1673ffffffffffffffffffffffffffffffffffffffff1681526020019081526020016000206040518060800160405290816000820180546103f090610b99565b80601f016020809104026020016040519081016040528092919081815260200182805461041c90610b99565b80156104695780601f1061043e57610100808354040283529160200191610469565b820191906000526020600020905b81548152906001019060200180831161044c57829003601f168201915b5050505050815260200160018201805461048290610b99565b80601f01602080910402602001604051908101604052809291908181526020018280546104ae90610b99565b80156104fb5780601f106104d0576101008083540402835291602001916104fb565b820191906000526020600020905b8154815290600101906020018083116104de57829003601f168201915b505050505081526020016002820160009054906101000a900473ffffffffffffffffffffffffffffffffffffffff1673ffffffffffffffffffffffffffffffffffffffff1673ffffffffffffffffffffffffffffffffffffffff1681526020016002820160149054906101000a900460ff1615151515815250509050806000015181602001518260600151935093509350509193909250565b60006020528060005260406000206000915090508060000180546105b790610b99565b80601f01602080910402602001604051908101604052809291908181526020018280546105e390610b99565b80156106305780601f1061060557610100808354040283529160200191610630565b820191906000526020600020905b81548152906001019060200180831161061357829003601f168201915b50505050509080600101805461064590610b99565b80601f016020809104026020016040519081016040528092919081815260200182805461067190610b99565b80156106be5780601f10610693576101008083540402835291602001916106be565b820191906000526020600020905b8154815290600101906020018083116106a157829003601f168201915b5050505050908060020160009054906101000a900473ffffffffffffffffffffffffffffffffffffffff16908060020160149054906101000a900460ff16905084565b82805461070d90610b99565b90600052602060002090601f01602090048101928261072f5760008555610776565b82601f1061074857805160ff1916838001178555610776565b82800160010185558215610776579182015b8281111561077557825182559160200191906001019061075a565b5b5090506107839190610787565b5090565b5b808211156107a0576000816000905550600101610788565b5090565b60006107b76107b284610acd565b610a9c565b9050828152602081018484840111156107cf57600080fd5b6107da848285610b57565b509392505050565b6000813590506107f181610c3a565b92915050565b600082601f83011261080857600080fd5b81356108188482602086016107a4565b91505092915050565b60006020828403121561083357600080fd5b6000610841848285016107e2565b91505092915050565b6000806040838503121561085d57600080fd5b600083013567ffffffffffffffff81111561087757600080fd5b610883858286016107f7565b925050602083013567ffffffffffffffff8111156108a057600080fd5b6108ac858286016107f7565b9150509250929050565b6108bf81610b19565b82525050565b6108ce81610b2b565b82525050565b60006108df82610afd565b6108e98185610b08565b93506108f9818560208601610b66565b61090281610c29565b840191505092915050565b600061091a601383610b08565b91507f496e76616c696420456e746974792054797065000000000000000000000000006000830152602082019050919050565b600061095a601983610b08565b91507f456e7469747920616c72656164792072656769737465726564000000000000006000830152602082019050919050565b600060408201905081810360008301526109a781856108d4565b905081810360208301526109bb81846108d4565b90509392505050565b600060808201905081810360008301526109de81876108d4565b905081810360208301526109f281866108d4565b9050610a0160408301856108b6565b610a0e60608301846108c5565b95945050505050565b60006060820190508181036000830152610a3181866108d4565b90508181036020830152610a4581856108d4565b9050610a5460408301846108c5565b949350505050565b60006020820190508181036000830152610a758161090d565b9050919050565b60006020820190508181036000830152610a958161094d565b9050919050565b6000604051905081810181811067ffffffffffffffff82111715610ac357610ac2610bfa565b5b8060405250919050565b600067ffffffffffffffff821115610ae857610ae7610bfa565b5b601f19601f8301169050602081019050919050565b600081519050919050565b600082825260208201905092915050565b6000610b2482610b37565b9050919050565b60008115159050919050565b600073ffffffffffffffffffffffffffffffffffffffff82169050919050565b82818337600083830152505050565b60005b83811015610b84578082015181840152602081019050610b69565b83811115610b93576000848401525b50505050565b60006002820490506001821680610bb157607f821691505b60208210811415610bc557610bc4610bcb565b5b50919050565b7f4e487b7100000000000000000000000000000000000000000000000000000000600052602260045260246000fd5b7f4e487b7100000000000000000000000000000000000000000000000000000000600052604160045260246000fd5b6000601f19601f8301169050919050565b610c4381610b19565b8114610c4e57600080fd5b5056fea2646970667358221220d3f5033bf6d7bcda3fe40d115f810ed3a667062a2d1ae26ef4e8b61c54e520a464736f6c63430008000033",
  "immutableReferences": {},
  "source": "// SPDX-License-Identifier: MIT\r\npragma solidity ^0.8.0;\r\n\r\ncontract BQPD {\r\n    struct Entity {\r\n        string uid;\r\n        string entityType;\r\n        address publicKey;\r\n        bool isRegistered;\r\n    }\r\n\r\n    mapping(address => Entity) public registeredEntities;\r\n\r\n    event EntityRegistered(address indexed addr, string uid, string entityType);\r\n\r\n    function registerEntity(string memory _uid, string memory _entityType) public {\r\n        require(!registeredEntities[msg.sender].isRegistered, \"Entity already registered\");\r\n        require(\r\n            keccak256(bytes(_entityType)) == keccak256(\"TA\") || \r\n            keccak256(bytes(_entityType)) == keccak256(\"PS\") ||\r\n            keccak256(bytes(_entityType)) == keccak256(\"ECC\"),\r\n            \"Invalid Entity Type\"\r\n        );\r\n\r\n        registeredEntities[msg.sender] = Entity({\r\n            uid: _uid,\r\n            entityType: _entityType,\r\n            publicKey: msg.sender,\r\n            isRegistered: true\r\n        });\r\n\r\n        emit EntityRegistered(msg.sender, _uid, _entityType);\r\n    }\r\n\r\n    function getEntity(address _addr) public view returns (string memory, string memory, bool) {\r\n        Entity memory entity = registeredEntities[_addr];\r\n        return (entity.uid, entity.entityType, entity.isRegistered);\r\n    }\r\n}\r\n",
  "sourcePath": "C:\\Users\\kulde\\OneDrive\\Desktop\\BQPD\\contracts\\BQPD.sol",
  "compiler": {
    "name": "solc",
    "version": "0.8.0+commit.c7dfd78e.Emscripten.clang"
  },
  "schemaVersion": "3.4.16",
  "updatedAt": "2025-06-04T19:05:02.985Z",
  "devdoc": {
    "kind": "dev",
    "methods": {},
    "version": 1
  },
  "userdoc": {
    "kind": "user",
    "methods": {},
    "version": 1
  }
}